{
  "contractName": "NoteData",
  "abi": [
    {
      "constant": false,
      "inputs": [
        {
          "name": "lovers_id",
          "type": "bytes32"
        },
        {
          "name": "uuid",
          "type": "bytes32"
        },
        {
          "name": "sender",
          "type": "address"
        },
        {
          "name": "content",
          "type": "string"
        },
        {
          "name": "feelings",
          "type": "uint32"
        },
        {
          "name": "pictures",
          "type": "string"
        },
        {
          "name": "ext_info",
          "type": "string"
        }
      ],
      "name": "setNote",
      "outputs": [],
      "payable": false,
      "stateMutability": "nonpayable",
      "type": "function"
    },
    {
      "constant": false,
      "inputs": [
        {
          "name": "lovers_id",
          "type": "bytes32"
        },
        {
          "name": "index",
          "type": "uint256"
        }
      ],
      "name": "getNote",
      "outputs": [
        {
          "name": "",
          "type": "bytes32"
        },
        {
          "name": "",
          "type": "address"
        },
        {
          "name": "",
          "type": "string"
        },
        {
          "name": "",
          "type": "uint32"
        },
        {
          "name": "",
          "type": "string"
        },
        {
          "name": "",
          "type": "string"
        },
        {
          "name": "",
          "type": "uint64"
        },
        {
          "name": "",
          "type": "uint256"
        }
      ],
      "payable": false,
      "stateMutability": "nonpayable",
      "type": "function"
    },
    {
      "constant": false,
      "inputs": [
        {
          "name": "lovers_id",
          "type": "bytes32"
        }
      ],
      "name": "countNotes",
      "outputs": [
        {
          "name": "",
          "type": "uint256"
        }
      ],
      "payable": false,
      "stateMutability": "nonpayable",
      "type": "function"
    },
    {
      "constant": false,
      "inputs": [
        {
          "name": "note_uuid",
          "type": "bytes32"
        },
        {
          "name": "replyer",
          "type": "address"
        },
        {
          "name": "content",
          "type": "string"
        },
        {
          "name": "ext_info",
          "type": "string"
        }
      ],
      "name": "setReply",
      "outputs": [],
      "payable": false,
      "stateMutability": "nonpayable",
      "type": "function"
    },
    {
      "constant": false,
      "inputs": [
        {
          "name": "note_uuid",
          "type": "bytes32"
        },
        {
          "name": "index",
          "type": "uint256"
        }
      ],
      "name": "getReply",
      "outputs": [
        {
          "name": "",
          "type": "bytes32"
        },
        {
          "name": "",
          "type": "address"
        },
        {
          "name": "",
          "type": "string"
        },
        {
          "name": "",
          "type": "string"
        },
        {
          "name": "",
          "type": "uint64"
        }
      ],
      "payable": false,
      "stateMutability": "nonpayable",
      "type": "function"
    },
    {
      "constant": false,
      "inputs": [
        {
          "name": "note_uuid",
          "type": "bytes32"
        }
      ],
      "name": "countReplies",
      "outputs": [
        {
          "name": "",
          "type": "uint256"
        }
      ],
      "payable": false,
      "stateMutability": "nonpayable",
      "type": "function"
    }
  ],
  "bytecode": "0x608060405234801561001057600080fd5b50611164806100206000396000f300608060405260043610610078576000357c0100000000000000000000000000000000000000000000000000000000900463ffffffff1680633d6226661461007d578063482c6c91146101fa5780634e6b1ce0146102d75780635b0fe809146104185780635e98e0c11461045d578063e44cccd414610660575b600080fd5b34801561008957600080fd5b506100b66004803603810190808035600019169060200190929190803590602001909291905050506106a5565b6040518086600019166000191681526020018573ffffffffffffffffffffffffffffffffffffffff1673ffffffffffffffffffffffffffffffffffffffff16815260200180602001806020018467ffffffffffffffff1667ffffffffffffffff168152602001838103835286818151815260200191508051906020019080838360005b83811015610154578082015181840152602081019050610139565b50505050905090810190601f1680156101815780820380516001836020036101000a031916815260200191505b50838103825285818151815260200191508051906020019080838360005b838110156101ba57808201518184015260208101905061019f565b50505050905090810190601f1680156101e75780820380516001836020036101000a031916815260200191505b5097505050505050505060405180910390f35b34801561020657600080fd5b506102d56004803603810190808035600019169060200190929190803573ffffffffffffffffffffffffffffffffffffffff169060200190929190803590602001908201803590602001908080601f0160208091040260200160405190810160405280939291908181526020018383808284378201915050505050509192919290803590602001908201803590602001908080601f016020809104026020016040519081016040528093929190818152602001838380828437820191505050505050919291929050505061090b565b005b3480156102e357600080fd5b5061041660048036038101908080356000191690602001909291908035600019169060200190929190803573ffffffffffffffffffffffffffffffffffffffff169060200190929190803590602001908201803590602001908080601f0160208091040260200160405190810160405280939291908181526020018383808284378201915050505050509192919290803563ffffffff169060200190929190803590602001908201803590602001908080601f0160208091040260200160405190810160405280939291908181526020018383808284378201915050505050509192919290803590602001908201803590602001908080601f0160208091040260200160405190810160405280939291908181526020018383808284378201915050505050509192919290505050610a66565b005b34801561042457600080fd5b506104476004803603810190808035600019169060200190929190505050610c19565b6040518082815260200191505060405180910390f35b34801561046957600080fd5b50610496600480360381019080803560001916906020019092919080359060200190929190505050610c41565b6040518089600019166000191681526020018873ffffffffffffffffffffffffffffffffffffffff1673ffffffffffffffffffffffffffffffffffffffff168152602001806020018763ffffffff1663ffffffff16815260200180602001806020018667ffffffffffffffff1667ffffffffffffffff16815260200185815260200184810384528a818151815260200191508051906020019080838360005b83811015610550578082015181840152602081019050610535565b50505050905090810190601f16801561057d5780820380516001836020036101000a031916815260200191505b50848103835288818151815260200191508051906020019080838360005b838110156105b657808201518184015260208101905061059b565b50505050905090810190601f1680156105e35780820380516001836020036101000a031916815260200191505b50848103825287818151815260200191508051906020019080838360005b8381101561061c578082015181840152602081019050610601565b50505050905090810190601f1680156106495780820380516001836020036101000a031916815260200191505b509b50505050505050505050505060405180910390f35b34801561066c57600080fd5b5061068f6004803603810190808035600019169060200190929190505050610fb2565b6040518082815260200191505060405180910390f35b60008060608060006106b5610fd9565b600160008960001916600019168152602001908152602001600020878154811015156106dd57fe5b906000526020600020906005020160a060405190810160405290816000820154600019166000191681526020016001820160009054906101000a900473ffffffffffffffffffffffffffffffffffffffff1673ffffffffffffffffffffffffffffffffffffffff1673ffffffffffffffffffffffffffffffffffffffff168152602001600282018054600181600116156101000203166002900480601f0160208091040260200160405190810160405280929190818152602001828054600181600116156101000203166002900480156107f85780601f106107cd576101008083540402835291602001916107f8565b820191906000526020600020905b8154815290600101906020018083116107db57829003601f168201915b50505050508152602001600382018054600181600116156101000203166002900480601f01602080910402602001604051908101604052809291908181526020018280546001816001161561010002031660029004801561089a5780601f1061086f5761010080835404028352916020019161089a565b820191906000526020600020905b81548152906001019060200180831161087d57829003601f168201915b505050505081526020016004820160009054906101000a900467ffffffffffffffff1667ffffffffffffffff1667ffffffffffffffff168152505090508060000151816020015182604001518360600151846080015182925081915095509550955095509550509295509295909350565b60016000856000191660001916815260200190815260200160002060a060405190810160405280866000191681526020013373ffffffffffffffffffffffffffffffffffffffff1681526020018481526020018381526020014267ffffffffffffffff16815250908060018154018082558091505090600182039060005260206000209060050201600090919290919091506000820151816000019060001916905560208201518160010160006101000a81548173ffffffffffffffffffffffffffffffffffffffff021916908373ffffffffffffffffffffffffffffffffffffffff1602179055506040820151816002019080519060200190610a1092919061102c565b506060820151816003019080519060200190610a2d92919061102c565b5060808201518160040160006101000a81548167ffffffffffffffff021916908367ffffffffffffffff16021790555050505050505050565b600080886000191660001916815260200190815260200160002060e060405190810160405280886000191681526020018773ffffffffffffffffffffffffffffffffffffffff1681526020018681526020018563ffffffff1681526020018481526020018381526020014267ffffffffffffffff16815250908060018154018082558091505090600182039060005260206000209060070201600090919290919091506000820151816000019060001916905560208201518160010160006101000a81548173ffffffffffffffffffffffffffffffffffffffff021916908373ffffffffffffffffffffffffffffffffffffffff1602179055506040820151816002019080519060200190610b7c92919061102c565b5060608201518160030160006101000a81548163ffffffff021916908363ffffffff1602179055506080820151816004019080519060200190610bc092919061102c565b5060a0820151816005019080519060200190610bdd92919061102c565b5060c08201518160060160006101000a81548167ffffffffffffffff021916908367ffffffffffffffff16021790555050505050505050505050565b6000600160008360001916600019168152602001908152602001600020805490509050919050565b60008060606000606080600080610c566110ac565b60008060008d600019166000191681526020019081526020016000208b815481101515610c7f57fe5b906000526020600020906007020160e060405190810160405290816000820154600019166000191681526020016001820160009054906101000a900473ffffffffffffffffffffffffffffffffffffffff1673ffffffffffffffffffffffffffffffffffffffff1673ffffffffffffffffffffffffffffffffffffffff168152602001600282018054600181600116156101000203166002900480601f016020809104026020016040519081016040528092919081815260200182805460018160011615610100020316600290048015610d9a5780601f10610d6f57610100808354040283529160200191610d9a565b820191906000526020600020905b815481529060010190602001808311610d7d57829003601f168201915b505050505081526020016003820160009054906101000a900463ffffffff1663ffffffff1663ffffffff168152602001600482018054600181600116156101000203166002900480601f016020809104026020016040519081016040528092919081815260200182805460018160011615610100020316600290048015610e625780601f10610e3757610100808354040283529160200191610e62565b820191906000526020600020905b815481529060010190602001808311610e4557829003601f168201915b50505050508152602001600582018054600181600116156101000203166002900480601f016020809104026020016040519081016040528092919081815260200182805460018160011615610100020316600290048015610f045780601f10610ed957610100808354040283529160200191610f04565b820191906000526020600020905b815481529060010190602001808311610ee757829003601f168201915b505050505081526020016006820160009054906101000a900467ffffffffffffffff1667ffffffffffffffff1667ffffffffffffffff1681525050915060016000836000015160001916600019168152602001908152602001600020805490509050816000015182602001518360400151846060015185608001518660a001518760c00151878595508393508292509950995099509950995099509950995050509295985092959890939650565b60008060008360001916600019168152602001908152602001600020805490509050919050565b60a06040519081016040528060008019168152602001600073ffffffffffffffffffffffffffffffffffffffff1681526020016060815260200160608152602001600067ffffffffffffffff1681525090565b828054600181600116156101000203166002900490600052602060002090601f016020900481019282601f1061106d57805160ff191683800117855561109b565b8280016001018555821561109b579182015b8281111561109a57825182559160200191906001019061107f565b5b5090506110a89190611113565b5090565b60e06040519081016040528060008019168152602001600073ffffffffffffffffffffffffffffffffffffffff16815260200160608152602001600063ffffffff1681526020016060815260200160608152602001600067ffffffffffffffff1681525090565b61113591905b80821115611131576000816000905550600101611119565b5090565b905600a165627a7a72305820cd029a2c96608694280d714fedb4786b9e7f0af2fb89b28934bb129f6ae26aa60029",
  "source": "pragma solidity ^0.4.2;\n\ncontract NoteData{\n\n    //恋爱记录\n    struct Note{\n    bytes32    uuid;\n    address sender;\n    string  content;\n    uint32  feelings;   //心情\n    string  pictures;   //上传图片的ipfs hash json数组\n    string  ext_info;   //扩展字段 格式为json对象\n    uint64  timestamp;\n    }\n\n    //记录回复\n    struct Reply{\n    bytes32    note_uuid;\n    address replyer;\n    string  content;\n    string  ext_info;   //扩展字段 格式为json对象\n    uint64  timestamp;\n    }\n\n    mapping(bytes32=>Note[])   internal  notes;\n    mapping(bytes32=>Reply[])    internal  replies;\n\n\n    function setNote(bytes32 lovers_id,bytes32 uuid,address sender,string content,uint32 feelings,string pictures,string ext_info){\n        notes[lovers_id].push(Note(uuid,sender,content,feelings,pictures,ext_info,uint64(now)));\n    }\n\n    function  getNote(bytes32 lovers_id,uint index)returns(bytes32,address,string,uint32,string,string,uint64,uint){\n        Note memory n=notes[lovers_id][index];\n        uint reply_length=replies[n.uuid].length;\n        return (n.uuid,n.sender,n.content,n.feelings,n.pictures,n.ext_info,n.timestamp,reply_length);\n    }\n\n    function  countNotes(bytes32 lovers_id)returns(uint){\n        return notes[lovers_id].length;\n    }\n\n    function setReply(bytes32 note_uuid,address replyer,string content,string ext_info){\n        replies[note_uuid].push(Reply(note_uuid,msg.sender,content,ext_info,uint64(now)));\n    }\n\n    function getReply(bytes32 note_uuid,uint index)returns(bytes32,address,string,string,uint64){\n        Reply memory r=replies[note_uuid][index];\n        return (r.note_uuid,r.replyer,r.content,r.ext_info,r.timestamp);\n    }\n\n    function  countReplies(bytes32 note_uuid)returns(uint){\n        return replies[note_uuid].length;\n    }\n\n\n}\n",
  "sourcePath": "/Users/finley/Documents/代码管理/GraduationDesign/TTVIP/contracts/NoteData.sol",
  "compiler": {
    "name": "solc",
    "version": "0.4.24+commit.e67f0147.Emscripten.clang"
  },
  "schemaVersion": "2.0.0",
  "updatedAt": "2018-06-10T10:18:06.517Z"
}