{
  "contractName": "TTVIP",
  "abi": [
    {
      "constant": true,
      "inputs": [
        {
          "name": "",
          "type": "uint256"
        }
      ],
      "name": "contracts",
      "outputs": [
        {
          "name": "firstParty",
          "type": "address"
        },
        {
          "name": "secondParty",
          "type": "address"
        },
        {
          "name": "shareProfit",
          "type": "uint32"
        },
        {
          "name": "expireYear",
          "type": "uint32"
        },
        {
          "name": "txHash",
          "type": "uint160"
        },
        {
          "name": "timestamp",
          "type": "uint64"
        },
        {
          "name": "state",
          "type": "uint8"
        },
        {
          "name": "remark",
          "type": "string"
        }
      ],
      "payable": false,
      "stateMutability": "view",
      "type": "function"
    },
    {
      "constant": true,
      "inputs": [
        {
          "name": "",
          "type": "address"
        }
      ],
      "name": "accounts",
      "outputs": [
        {
          "name": "userAddr",
          "type": "address"
        },
        {
          "name": "userId",
          "type": "uint128"
        },
        {
          "name": "userName",
          "type": "string"
        },
        {
          "name": "status",
          "type": "uint32"
        },
        {
          "name": "balance",
          "type": "uint128"
        }
      ],
      "payable": false,
      "stateMutability": "view",
      "type": "function"
    },
    {
      "constant": true,
      "inputs": [
        {
          "name": "",
          "type": "uint256"
        }
      ],
      "name": "transactions",
      "outputs": [
        {
          "name": "txHash",
          "type": "uint160"
        },
        {
          "name": "from",
          "type": "address"
        },
        {
          "name": "to",
          "type": "address"
        },
        {
          "name": "amount",
          "type": "uint128"
        },
        {
          "name": "timestamp",
          "type": "uint64"
        },
        {
          "name": "remark",
          "type": "string"
        }
      ],
      "payable": false,
      "stateMutability": "view",
      "type": "function"
    },
    {
      "inputs": [],
      "payable": false,
      "stateMutability": "nonpayable",
      "type": "constructor"
    },
    {
      "anonymous": false,
      "inputs": [
        {
          "indexed": true,
          "name": "firstParty",
          "type": "address"
        },
        {
          "indexed": true,
          "name": "secondParty",
          "type": "address"
        },
        {
          "indexed": true,
          "name": "txHash",
          "type": "uint256"
        }
      ],
      "name": "Signed",
      "type": "event"
    },
    {
      "anonymous": false,
      "inputs": [
        {
          "indexed": true,
          "name": "from",
          "type": "address"
        },
        {
          "indexed": true,
          "name": "to",
          "type": "address"
        },
        {
          "indexed": true,
          "name": "txHash",
          "type": "uint256"
        }
      ],
      "name": "Transformed",
      "type": "event"
    },
    {
      "constant": false,
      "inputs": [
        {
          "name": "secondParty",
          "type": "address"
        },
        {
          "name": "shareProfit",
          "type": "uint32"
        },
        {
          "name": "expireYear",
          "type": "uint32"
        },
        {
          "name": "remark",
          "type": "string"
        }
      ],
      "name": "signContract",
      "outputs": [
        {
          "name": "",
          "type": "uint160"
        }
      ],
      "payable": false,
      "stateMutability": "nonpayable",
      "type": "function"
    },
    {
      "constant": false,
      "inputs": [
        {
          "name": "txHash",
          "type": "uint160"
        },
        {
          "name": "state",
          "type": "uint8"
        }
      ],
      "name": "confirmContract",
      "outputs": [],
      "payable": false,
      "stateMutability": "nonpayable",
      "type": "function"
    },
    {
      "constant": true,
      "inputs": [
        {
          "name": "state",
          "type": "uint8"
        }
      ],
      "name": "getContracts",
      "outputs": [
        {
          "name": "",
          "type": "uint160[7][]"
        }
      ],
      "payable": false,
      "stateMutability": "view",
      "type": "function"
    },
    {
      "constant": true,
      "inputs": [
        {
          "name": "txHash",
          "type": "uint160"
        }
      ],
      "name": "getConrtactDetail",
      "outputs": [
        {
          "name": "",
          "type": "address"
        },
        {
          "name": "",
          "type": "address"
        },
        {
          "name": "",
          "type": "uint32"
        },
        {
          "name": "",
          "type": "uint32"
        },
        {
          "name": "",
          "type": "uint160"
        },
        {
          "name": "",
          "type": "uint64"
        },
        {
          "name": "",
          "type": "string"
        },
        {
          "name": "",
          "type": "uint8"
        }
      ],
      "payable": false,
      "stateMutability": "view",
      "type": "function"
    },
    {
      "constant": false,
      "inputs": [
        {
          "name": "to",
          "type": "address"
        },
        {
          "name": "amount",
          "type": "uint128"
        },
        {
          "name": "remark",
          "type": "string"
        }
      ],
      "name": "transform",
      "outputs": [
        {
          "name": "",
          "type": "uint160"
        }
      ],
      "payable": false,
      "stateMutability": "nonpayable",
      "type": "function"
    },
    {
      "constant": false,
      "inputs": [
        {
          "name": "secondParty",
          "type": "address"
        },
        {
          "name": "amount",
          "type": "uint128"
        }
      ],
      "name": "shareProfit",
      "outputs": [],
      "payable": false,
      "stateMutability": "nonpayable",
      "type": "function"
    },
    {
      "constant": false,
      "inputs": [
        {
          "name": "to",
          "type": "address"
        },
        {
          "name": "amount",
          "type": "uint128"
        },
        {
          "name": "remark",
          "type": "string"
        }
      ],
      "name": "addFund",
      "outputs": [
        {
          "name": "touser",
          "type": "address"
        },
        {
          "name": "balance",
          "type": "uint256"
        }
      ],
      "payable": false,
      "stateMutability": "nonpayable",
      "type": "function"
    },
    {
      "constant": false,
      "inputs": [
        {
          "name": "from",
          "type": "address"
        },
        {
          "name": "to",
          "type": "address"
        },
        {
          "name": "amount",
          "type": "uint128"
        },
        {
          "name": "txHash",
          "type": "uint160"
        },
        {
          "name": "timestamp",
          "type": "uint64"
        },
        {
          "name": "remark",
          "type": "string"
        }
      ],
      "name": "takerecord",
      "outputs": [],
      "payable": false,
      "stateMutability": "nonpayable",
      "type": "function"
    },
    {
      "constant": true,
      "inputs": [
        {
          "name": "to",
          "type": "address"
        }
      ],
      "name": "getTransactions",
      "outputs": [
        {
          "name": "",
          "type": "uint160[5][]"
        }
      ],
      "payable": false,
      "stateMutability": "view",
      "type": "function"
    },
    {
      "constant": true,
      "inputs": [
        {
          "name": "txHash",
          "type": "uint160"
        }
      ],
      "name": "getTransactionDetail",
      "outputs": [
        {
          "name": "",
          "type": "uint160"
        },
        {
          "name": "",
          "type": "address"
        },
        {
          "name": "",
          "type": "address"
        },
        {
          "name": "",
          "type": "uint128"
        },
        {
          "name": "",
          "type": "uint64"
        },
        {
          "name": "",
          "type": "string"
        }
      ],
      "payable": false,
      "stateMutability": "view",
      "type": "function"
    },
    {
      "constant": false,
      "inputs": [
        {
          "name": "userId",
          "type": "uint128"
        },
        {
          "name": "userName",
          "type": "string"
        },
        {
          "name": "balance",
          "type": "uint64"
        }
      ],
      "name": "register",
      "outputs": [],
      "payable": false,
      "stateMutability": "nonpayable",
      "type": "function"
    },
    {
      "constant": false,
      "inputs": [
        {
          "name": "addr",
          "type": "address"
        },
        {
          "name": "amount",
          "type": "uint128"
        }
      ],
      "name": "updateBalance",
      "outputs": [],
      "payable": false,
      "stateMutability": "nonpayable",
      "type": "function"
    },
    {
      "constant": true,
      "inputs": [],
      "name": "getAccountList",
      "outputs": [
        {
          "name": "",
          "type": "bytes20[]"
        },
        {
          "name": "",
          "type": "string[]"
        }
      ],
      "payable": false,
      "stateMutability": "view",
      "type": "function"
    },
    {
      "constant": true,
      "inputs": [],
      "name": "getAccount",
      "outputs": [
        {
          "name": "",
          "type": "address"
        },
        {
          "name": "",
          "type": "uint128"
        },
        {
          "name": "",
          "type": "string"
        },
        {
          "name": "",
          "type": "uint32"
        },
        {
          "name": "",
          "type": "uint128"
        }
      ],
      "payable": false,
      "stateMutability": "view",
      "type": "function"
    },
    {
      "constant": true,
      "inputs": [],
      "name": "getBalance",
      "outputs": [
        {
          "name": "",
          "type": "uint128"
        }
      ],
      "payable": false,
      "stateMutability": "view",
      "type": "function"
    },
    {
      "constant": true,
      "inputs": [],
      "name": "test",
      "outputs": [
        {
          "name": "val",
          "type": "address"
        },
        {
          "name": "t",
          "type": "uint64"
        }
      ],
      "payable": false,
      "stateMutability": "view",
      "type": "function"
    }
  ],
  "bytecode": "0x6080604052620f69b5600960006101000a81548173ffffffffffffffffffffffffffffffffffffffff021916908373ffffffffffffffffffffffffffffffffffffffff16021790555034801561005457600080fd5b50336000806101000a81548173ffffffffffffffffffffffffffffffffffffffff021916908373ffffffffffffffffffffffffffffffffffffffff160217905550614e34806100a46000396000f300608060405260043610610107576000357c0100000000000000000000000000000000000000000000000000000000900463ffffffff16806304672fff1461010c5780630f8cda201461014957806312065fe01461018657806315f9784a146101b15780632843314e146101ee5780633a742b041461021a578063474da79a1461025857806358afdd051461029c5780635e5c06e2146102de5780637290054d1461031f5780637907f13d1461035c578063870f0261146103855780639ace38c2146103ae578063c2a6ddc8146103f0578063c4e552a414610419578063ceda569114610442578063d10596b11461046b578063db613e81146104af578063f8a8fd6d146104de575b600080fd5b34801561011857600080fd5b50610133600480360361012e9190810190614238565b61050a565b60405161014091906149e7565b60405180910390f35b34801561015557600080fd5b50610170600480360361016b91908101906140cb565b6108fa565b60405161017d9190614951565b60405180910390f35b34801561019257600080fd5b5061019b61090d565b6040516101a891906149cc565b60405180910390f35b3480156101bd57600080fd5b506101d860048036036101d391908101906142b3565b610973565b6040516101e59190614973565b60405180910390f35b3480156101fa57600080fd5b50610203610986565b604051610211929190614995565b60405180910390f35b34801561022657600080fd5b50610241600480360361023c91908101906141d1565b610c43565b60405161024f9291906148ff565b60405180910390f35b34801561026457600080fd5b5061027f600480360361027a91908101906143a8565b610f6e565b604051610293989796959493929190614741565b60405180910390f35b3480156102a857600080fd5b506102c360048036036102be9190810190614343565b6110fe565b6040516102d596959493929190614a6a565b60405180910390f35b3480156102ea57600080fd5b50610305600480360361030091908101906140cb565b6113d7565b6040516103169594939291906148a5565b60405180910390f35b34801561032b57600080fd5b50610346600480360361034191908101906141d1565b61150d565b60405161035391906149e7565b60405180910390f35b34801561036857600080fd5b50610383600480360361037e9190810190614195565b6118b7565b005b34801561039157600080fd5b506103ac60048036036103a79190810190614195565b611955565b005b3480156103ba57600080fd5b506103d560048036036103d091908101906143a8565b611b83565b6040516103e796959493929190614a02565b60405180910390f35b3480156103fc57600080fd5b50610417600480360361041291908101906140f4565b611cf6565b005b34801561042557600080fd5b50610440600480360361043b91908101906142dc565b611f69565b005b34801561044e57600080fd5b506104696004803603610464919081019061436c565b6123d1565b005b34801561047757600080fd5b50610492600480360361048d9190810190614343565b612743565b6040516104a69897969594939291906147c6565b60405180910390f35b3480156104bb57600080fd5b506104c4612a69565b6040516104d595949392919061484b565b60405180910390f35b3480156104ea57600080fd5b506104f3612ca6565b604051610501929190614928565b60405180910390f35b6000806000610517613d50565b6000610521612cda565b9350429250610100604051908101604052803373ffffffffffffffffffffffffffffffffffffffff1681526020018a73ffffffffffffffffffffffffffffffffffffffff1681526020018963ffffffff1681526020018863ffffffff1681526020018573ffffffffffffffffffffffffffffffffffffffff1681526020018467ffffffffffffffff168152602001600160048111156105bc57fe5b8152602001878152509150600780549050905080600460008673ffffffffffffffffffffffffffffffffffffffff1673ffffffffffffffffffffffffffffffffffffffff168152602001908152602001600020819055506007829080600181540180825580915050906001820390600052602060002090600402016000909192909190915060008201518160000160006101000a81548173ffffffffffffffffffffffffffffffffffffffff021916908373ffffffffffffffffffffffffffffffffffffffff16021790555060208201518160010160006101000a81548173ffffffffffffffffffffffffffffffffffffffff021916908373ffffffffffffffffffffffffffffffffffffffff16021790555060408201518160010160146101000a81548163ffffffff021916908363ffffffff16021790555060608201518160010160186101000a81548163ffffffff021916908363ffffffff16021790555060808201518160020160006101000a81548173ffffffffffffffffffffffffffffffffffffffff021916908373ffffffffffffffffffffffffffffffffffffffff16021790555060a08201518160020160146101000a81548167ffffffffffffffff021916908367ffffffffffffffff16021790555060c082015181600201601c6101000a81548160ff021916908360048111156107b757fe5b021790555060e08201518160030190805190602001906107d8929190613df9565b50505050600360003373ffffffffffffffffffffffffffffffffffffffff1673ffffffffffffffffffffffffffffffffffffffff16815260200190815260200160002060008154809291906001019190505550600360008a73ffffffffffffffffffffffffffffffffffffffff1673ffffffffffffffffffffffffffffffffffffffff168152602001908152602001600020600081548092919060010191905055508373ffffffffffffffffffffffffffffffffffffffff168973ffffffffffffffffffffffffffffffffffffffff163373ffffffffffffffffffffffffffffffffffffffff167f87c381bc9fde4d800b96cb8c51c2de2f860fae851955c2cc063723d0bf1cacef60405160405180910390a483945050505050949350505050565b60606109063383612d6f565b9050919050565b6000600160003373ffffffffffffffffffffffffffffffffffffffff1673ffffffffffffffffffffffffffffffffffffffff16815260200190815260200160002060030160049054906101000a90046fffffffffffffffffffffffffffffffff16905090565b606061097f33836133d7565b9050919050565b60608060608060006002805490506040519080825280602002602001820160405280156109c25781602001602082028038833980820191505090505b5092506002805490506040519080825280602002602001820160405280156109fe57816020015b60608152602001906001900390816109e95790505b509150600090505b600280549050811015610c365760016000600283815481101515610a2657fe5b9060005260206000200160009054906101000a900473ffffffffffffffffffffffffffffffffffffffff1673ffffffffffffffffffffffffffffffffffffffff1673ffffffffffffffffffffffffffffffffffffffff16815260200190815260200160002060000160009054906101000a900473ffffffffffffffffffffffffffffffffffffffff166c01000000000000000000000000028382815181101515610acc57fe5b906020019060200201906bffffffffffffffffffffffff191690816bffffffffffffffffffffffff19168152505060016000600283815481101515610b0d57fe5b9060005260206000200160009054906101000a900473ffffffffffffffffffffffffffffffffffffffff1673ffffffffffffffffffffffffffffffffffffffff1673ffffffffffffffffffffffffffffffffffffffff1681526020019081526020016000206002018054600181600116156101000203166002900480601f016020809104026020016040519081016040528092919081815260200182805460018160011615610100020316600290048015610c095780601f10610bde57610100808354040283529160200191610c09565b820191906000526020600020905b815481529060010190602001808311610bec57829003601f168201915b50505050508282815181101515610c1c57fe5b906020019060200201819052508080600101915050610a06565b8282945094505050509091565b6000806000806000809054906101000a900473ffffffffffffffffffffffffffffffffffffffff1673ffffffffffffffffffffffffffffffffffffffff163373ffffffffffffffffffffffffffffffffffffffff16141515610ca457600080fd5b429150610caf612cda565b905085600160008973ffffffffffffffffffffffffffffffffffffffff1673ffffffffffffffffffffffffffffffffffffffff16815260200190815260200160002060030160048282829054906101000a90046fffffffffffffffffffffffffffffffff160192506101000a8154816fffffffffffffffffffffffffffffffff02191690836fffffffffffffffffffffffffffffffff1602179055503073ffffffffffffffffffffffffffffffffffffffff1663c2a6ddc833898985878b6040518763ffffffff167c0100000000000000000000000000000000000000000000000000000000028152600401610daa969594939291906146d9565b600060405180830381600087803b158015610dc457600080fd5b505af1158015610dd8573d6000803e3d6000fd5b50505050600560003373ffffffffffffffffffffffffffffffffffffffff1673ffffffffffffffffffffffffffffffffffffffff16815260200190815260200160002060008154809291906001019190505550600560008873ffffffffffffffffffffffffffffffffffffffff1673ffffffffffffffffffffffffffffffffffffffff168152602001908152602001600020600081548092919060010191905055508073ffffffffffffffffffffffffffffffffffffffff168773ffffffffffffffffffffffffffffffffffffffff163373ffffffffffffffffffffffffffffffffffffffff167f15e7747ead530057c3d2b1a8787587d9e1d62570a928262c9598bdcd75fea47660405160405180910390a486600160008973ffffffffffffffffffffffffffffffffffffffff1673ffffffffffffffffffffffffffffffffffffffff16815260200190815260200160002060030160049054906101000a90046fffffffffffffffffffffffffffffffff16806fffffffffffffffffffffffffffffffff169050935093505050935093915050565b600781815481101515610f7d57fe5b90600052602060002090600402016000915090508060000160009054906101000a900473ffffffffffffffffffffffffffffffffffffffff16908060010160009054906101000a900473ffffffffffffffffffffffffffffffffffffffff16908060010160149054906101000a900463ffffffff16908060010160189054906101000a900463ffffffff16908060020160009054906101000a900473ffffffffffffffffffffffffffffffffffffffff16908060020160149054906101000a900467ffffffffffffffff169080600201601c9054906101000a900460ff1690806003018054600181600116156101000203166002900480601f0160208091040260200160405190810160405280929190818152602001828054600181600116156101000203166002900480156110f45780601f106110c9576101008083540402835291602001916110f4565b820191906000526020600020905b8154815290600101906020018083116110d757829003601f168201915b5050505050905088565b600080600080600060606000611112613e79565b600660008a73ffffffffffffffffffffffffffffffffffffffff1673ffffffffffffffffffffffffffffffffffffffff16815260200190815260200160002054915060088281548110151561116357fe5b906000526020600020906005020160c060405190810160405290816000820160009054906101000a900473ffffffffffffffffffffffffffffffffffffffff1673ffffffffffffffffffffffffffffffffffffffff1673ffffffffffffffffffffffffffffffffffffffff1681526020016001820160009054906101000a900473ffffffffffffffffffffffffffffffffffffffff1673ffffffffffffffffffffffffffffffffffffffff1673ffffffffffffffffffffffffffffffffffffffff1681526020016002820160009054906101000a900473ffffffffffffffffffffffffffffffffffffffff1673ffffffffffffffffffffffffffffffffffffffff1673ffffffffffffffffffffffffffffffffffffffff1681526020016003820160009054906101000a90046fffffffffffffffffffffffffffffffff166fffffffffffffffffffffffffffffffff166fffffffffffffffffffffffffffffffff1681526020016003820160109054906101000a900467ffffffffffffffff1667ffffffffffffffff1667ffffffffffffffff168152602001600482018054600181600116156101000203166002900480601f0160208091040260200160405190810160405280929190818152602001828054600181600116156101000203166002900480156113945780601f1061136957610100808354040283529160200191611394565b820191906000526020600020905b81548152906001019060200180831161137757829003601f168201915b5050505050815250509050806000015181602001518260400151836060015184608001518560a00151809050975097509750975097509750505091939550919395565b60016020528060005260406000206000915090508060000160009054906101000a900473ffffffffffffffffffffffffffffffffffffffff16908060010160009054906101000a90046fffffffffffffffffffffffffffffffff1690806002018054600181600116156101000203166002900480601f0160208091040260200160405190810160405280929190818152602001828054600181600116156101000203166002900480156114cb5780601f106114a0576101008083540402835291602001916114cb565b820191906000526020600020905b8154815290600101906020018083116114ae57829003601f168201915b5050505050908060030160009054906101000a900463ffffffff16908060030160049054906101000a90046fffffffffffffffffffffffffffffffff16905085565b600080600080856fffffffffffffffffffffffffffffffff161180156115b55750846fffffffffffffffffffffffffffffffff16600160003373ffffffffffffffffffffffffffffffffffffffff1673ffffffffffffffffffffffffffffffffffffffff16815260200190815260200160002060030160049054906101000a90046fffffffffffffffffffffffffffffffff166fffffffffffffffffffffffffffffffff1610155b15156115c057600080fd5b6115c8612cda565b915042905084600160003373ffffffffffffffffffffffffffffffffffffffff1673ffffffffffffffffffffffffffffffffffffffff16815260200190815260200160002060030160048282829054906101000a90046fffffffffffffffffffffffffffffffff160392506101000a8154816fffffffffffffffffffffffffffffffff02191690836fffffffffffffffffffffffffffffffff16021790555084600160008873ffffffffffffffffffffffffffffffffffffffff1673ffffffffffffffffffffffffffffffffffffffff16815260200190815260200160002060030160048282829054906101000a90046fffffffffffffffffffffffffffffffff160192506101000a8154816fffffffffffffffffffffffffffffffff02191690836fffffffffffffffffffffffffffffffff160217905550600560003373ffffffffffffffffffffffffffffffffffffffff1673ffffffffffffffffffffffffffffffffffffffff16815260200190815260200160002060008154809291906001019190505550600560008773ffffffffffffffffffffffffffffffffffffffff1673ffffffffffffffffffffffffffffffffffffffff168152602001908152602001600020600081548092919060010191905055503073ffffffffffffffffffffffffffffffffffffffff1663c2a6ddc833888886868a6040518763ffffffff167c01000000000000000000000000000000000000000000000000000000000281526004016117fe969594939291906146d9565b600060405180830381600087803b15801561181857600080fd5b505af115801561182c573d6000803e3d6000fd5b5050505061183a8686611955565b8173ffffffffffffffffffffffffffffffffffffffff168673ffffffffffffffffffffffffffffffffffffffff163373ffffffffffffffffffffffffffffffffffffffff167f15e7747ead530057c3d2b1a8787587d9e1d62570a928262c9598bdcd75fea47660405160405180910390a481925050509392505050565b80600160008473ffffffffffffffffffffffffffffffffffffffff1673ffffffffffffffffffffffffffffffffffffffff16815260200190815260200160002060030160048282829054906101000a90046fffffffffffffffffffffffffffffffff160192506101000a8154816fffffffffffffffffffffffffffffffff02191690836fffffffffffffffffffffffffffffffff1602179055505050565b600080600080600080600360008973ffffffffffffffffffffffffffffffffffffffff1673ffffffffffffffffffffffffffffffffffffffff16815260200190815260200160002054955060009450600092505b600780549050831015611aff57600360048111156119c357fe5b6007848154811015156119d257fe5b9060005260206000209060040201600201601c9054906101000a900460ff1660048111156119fc57fe5b1415611af2578773ffffffffffffffffffffffffffffffffffffffff16600784815481101515611a2857fe5b906000526020600020906004020160010160009054906101000a900473ffffffffffffffffffffffffffffffffffffffff1673ffffffffffffffffffffffffffffffffffffffff161415611af157600783815481101515611a8557fe5b906000526020600020906004020160010160149054906101000a900463ffffffff169450600783815481101515611ab857fe5b906000526020600020906004020160000160009054906101000a900473ffffffffffffffffffffffffffffffffffffffff169350611aff565b5b82806001019350506119a9565b60008563ffffffff161115611b7957611b16612cda565b915060648563ffffffff16811515611b2a57fe5b0463ffffffff1687029050611b7884898385426040805190810160405280600d81526020017f73686172652070726f6669742100000000000000000000000000000000000000815250611cf6565b5b5050505050505050565b600881815481101515611b9257fe5b90600052602060002090600502016000915090508060000160009054906101000a900473ffffffffffffffffffffffffffffffffffffffff16908060010160009054906101000a900473ffffffffffffffffffffffffffffffffffffffff16908060020160009054906101000a900473ffffffffffffffffffffffffffffffffffffffff16908060030160009054906101000a90046fffffffffffffffffffffffffffffffff16908060030160109054906101000a900467ffffffffffffffff1690806004018054600181600116156101000203166002900480601f016020809104026020016040519081016040528092919081815260200182805460018160011615610100020316600290048015611cec5780601f10611cc157610100808354040283529160200191611cec565b820191906000526020600020905b815481529060010190602001808311611ccf57829003601f168201915b5050505050905086565b6000600880549050905080600660008673ffffffffffffffffffffffffffffffffffffffff1673ffffffffffffffffffffffffffffffffffffffff16815260200190815260200160002081905550600860c0604051908101604052808673ffffffffffffffffffffffffffffffffffffffff1681526020018973ffffffffffffffffffffffffffffffffffffffff1681526020018873ffffffffffffffffffffffffffffffffffffffff168152602001876fffffffffffffffffffffffffffffffff1681526020018567ffffffffffffffff168152602001848152509080600181540180825580915050906001820390600052602060002090600502016000909192909190915060008201518160000160006101000a81548173ffffffffffffffffffffffffffffffffffffffff021916908373ffffffffffffffffffffffffffffffffffffffff16021790555060208201518160010160006101000a81548173ffffffffffffffffffffffffffffffffffffffff021916908373ffffffffffffffffffffffffffffffffffffffff16021790555060408201518160020160006101000a81548173ffffffffffffffffffffffffffffffffffffffff021916908373ffffffffffffffffffffffffffffffffffffffff16021790555060608201518160030160006101000a8154816fffffffffffffffffffffffffffffffff02191690836fffffffffffffffffffffffffffffffff16021790555060808201518160030160106101000a81548167ffffffffffffffff021916908367ffffffffffffffff16021790555060a0820151816004019080519060200190611f5c929190613df9565b5050505050505050505050565b6000611f73613f0e565b611f7b613f0e565b329250600160008473ffffffffffffffffffffffffffffffffffffffff1673ffffffffffffffffffffffffffffffffffffffff16815260200190815260200160002060a060405190810160405290816000820160009054906101000a900473ffffffffffffffffffffffffffffffffffffffff1673ffffffffffffffffffffffffffffffffffffffff1673ffffffffffffffffffffffffffffffffffffffff1681526020016001820160009054906101000a90046fffffffffffffffffffffffffffffffff166fffffffffffffffffffffffffffffffff166fffffffffffffffffffffffffffffffff168152602001600282018054600181600116156101000203166002900480601f0160208091040260200160405190810160405280929190818152602001828054600181600116156101000203166002900480156121025780601f106120d757610100808354040283529160200191612102565b820191906000526020600020905b8154815290600101906020018083116120e557829003601f168201915b505050505081526020016003820160009054906101000a900463ffffffff1663ffffffff1663ffffffff1681526020016003820160049054906101000a90046fffffffffffffffffffffffffffffffff166fffffffffffffffffffffffffffffffff166fffffffffffffffffffffffffffffffff16815250509150600082602001516fffffffffffffffffffffffffffffffff161415156121a257600080fd5b60a0604051908101604052808473ffffffffffffffffffffffffffffffffffffffff168152602001876fffffffffffffffffffffffffffffffff168152602001868152602001600163ffffffff1681526020018567ffffffffffffffff166fffffffffffffffffffffffffffffffff16815250905080600160008573ffffffffffffffffffffffffffffffffffffffff1673ffffffffffffffffffffffffffffffffffffffff16815260200190815260200160002060008201518160000160006101000a81548173ffffffffffffffffffffffffffffffffffffffff021916908373ffffffffffffffffffffffffffffffffffffffff16021790555060208201518160010160006101000a8154816fffffffffffffffffffffffffffffffff02191690836fffffffffffffffffffffffffffffffff16021790555060408201518160020190805190602001906122f9929190613df9565b5060608201518160030160006101000a81548163ffffffff021916908363ffffffff16021790555060808201518160030160046101000a8154816fffffffffffffffffffffffffffffffff02191690836fffffffffffffffffffffffffffffffff16021790555090505060028390806001815401808255809150509060018203906000526020600020016000909192909190916101000a81548173ffffffffffffffffffffffffffffffffffffffff021916908373ffffffffffffffffffffffffffffffffffffffff16021790555050505050505050565b60006123db613d50565b600460008573ffffffffffffffffffffffffffffffffffffffff1673ffffffffffffffffffffffffffffffffffffffff16815260200190815260200160002054915060078281548110151561242c57fe5b906000526020600020906004020161010060405190810160405290816000820160009054906101000a900473ffffffffffffffffffffffffffffffffffffffff1673ffffffffffffffffffffffffffffffffffffffff1673ffffffffffffffffffffffffffffffffffffffff1681526020016001820160009054906101000a900473ffffffffffffffffffffffffffffffffffffffff1673ffffffffffffffffffffffffffffffffffffffff1673ffffffffffffffffffffffffffffffffffffffff1681526020016001820160149054906101000a900463ffffffff1663ffffffff1663ffffffff1681526020016001820160189054906101000a900463ffffffff1663ffffffff1663ffffffff1681526020016002820160009054906101000a900473ffffffffffffffffffffffffffffffffffffffff1673ffffffffffffffffffffffffffffffffffffffff1673ffffffffffffffffffffffffffffffffffffffff1681526020016002820160149054906101000a900467ffffffffffffffff1667ffffffffffffffff1667ffffffffffffffff16815260200160028201601c9054906101000a900460ff1660048111156125e557fe5b60048111156125f057fe5b8152602001600382018054600181600116156101000203166002900480601f01602080910402602001604051908101604052809291908181526020018280546001816001161561010002031660029004801561268d5780601f106126625761010080835404028352916020019161268d565b820191906000526020600020905b81548152906001019060200180831161267057829003601f168201915b5050505050815250509050806020015173ffffffffffffffffffffffffffffffffffffffff163373ffffffffffffffffffffffffffffffffffffffff161480156126f15750600160048111156126df57fe5b8160c0015160048111156126ef57fe5b145b15156126fc57600080fd5b8260078381548110151561270c57fe5b9060005260206000209060040201600201601c6101000a81548160ff0219169083600481111561273857fe5b021790555050505050565b6000806000806000806060600080612759613d50565b600460008c73ffffffffffffffffffffffffffffffffffffffff1673ffffffffffffffffffffffffffffffffffffffff1681526020019081526020016000205491506007828154811015156127aa57fe5b906000526020600020906004020161010060405190810160405290816000820160009054906101000a900473ffffffffffffffffffffffffffffffffffffffff1673ffffffffffffffffffffffffffffffffffffffff1673ffffffffffffffffffffffffffffffffffffffff1681526020016001820160009054906101000a900473ffffffffffffffffffffffffffffffffffffffff1673ffffffffffffffffffffffffffffffffffffffff1673ffffffffffffffffffffffffffffffffffffffff1681526020016001820160149054906101000a900463ffffffff1663ffffffff1663ffffffff1681526020016001820160189054906101000a900463ffffffff1663ffffffff1663ffffffff1681526020016002820160009054906101000a900473ffffffffffffffffffffffffffffffffffffffff1673ffffffffffffffffffffffffffffffffffffffff1673ffffffffffffffffffffffffffffffffffffffff1681526020016002820160149054906101000a900467ffffffffffffffff1667ffffffffffffffff1667ffffffffffffffff16815260200160028201601c9054906101000a900460ff16600481111561296357fe5b600481111561296e57fe5b8152602001600382018054600181600116156101000203166002900480601f016020809104026020016040519081016040528092919081815260200182805460018160011615610100020316600290048015612a0b5780601f106129e057610100808354040283529160200191612a0b565b820191906000526020600020905b8154815290600101906020018083116129ee57829003601f168201915b5050505050815250509050806000015181602001518260400151836060015184608001518560a001518660e001518760c001516004811115612a4957fe5b819150995099509950995099509950995099505050919395975091939597565b6000806060600080612a79613f0e565b600160003373ffffffffffffffffffffffffffffffffffffffff1673ffffffffffffffffffffffffffffffffffffffff16815260200190815260200160002060a060405190810160405290816000820160009054906101000a900473ffffffffffffffffffffffffffffffffffffffff1673ffffffffffffffffffffffffffffffffffffffff1673ffffffffffffffffffffffffffffffffffffffff1681526020016001820160009054906101000a90046fffffffffffffffffffffffffffffffff166fffffffffffffffffffffffffffffffff166fffffffffffffffffffffffffffffffff168152602001600282018054600181600116156101000203166002900480601f016020809104026020016040519081016040528092919081815260200182805460018160011615610100020316600290048015612bfd5780601f10612bd257610100808354040283529160200191612bfd565b820191906000526020600020905b815481529060010190602001808311612be057829003601f168201915b505050505081526020016003820160009054906101000a900463ffffffff1663ffffffff1663ffffffff1681526020016003820160049054906101000a90046fffffffffffffffffffffffffffffffff166fffffffffffffffffffffffffffffffff166fffffffffffffffffffffffffffffffff168152505090508060000151816020015182604001518360600151846080015182925095509550955095509550509091929394565b60008060003390506000809054906101000a900473ffffffffffffffffffffffffffffffffffffffff168192509250509091565b60006009600081819054906101000a900473ffffffffffffffffffffffffffffffffffffffff168092919060010191906101000a81548173ffffffffffffffffffffffffffffffffffffffff021916908373ffffffffffffffffffffffffffffffffffffffff16021790555050600960009054906101000a900473ffffffffffffffffffffffffffffffffffffffff16905090565b60606000606060008060008060009054906101000a900473ffffffffffffffffffffffffffffffffffffffff1673ffffffffffffffffffffffffffffffffffffffff168873ffffffffffffffffffffffffffffffffffffffff1614612e1357600560008973ffffffffffffffffffffffffffffffffffffffff1673ffffffffffffffffffffffffffffffffffffffff16815260200190815260200160002054612e1a565b6008805490505b945084604051908082528060200260200182016040528015612e5657816020015b612e43613f7e565b815260200190600190039081612e3b5790505b50935060009250600091505b6008805490508267ffffffffffffffff1610156133c95760088267ffffffffffffffff16815481101515612e9257fe5b906000526020600020906005020190506000809054906101000a900473ffffffffffffffffffffffffffffffffffffffff1673ffffffffffffffffffffffffffffffffffffffff168873ffffffffffffffffffffffffffffffffffffffff1614156131425760008773ffffffffffffffffffffffffffffffffffffffff1614158015612f6e57508673ffffffffffffffffffffffffffffffffffffffff168160020160009054906101000a900473ffffffffffffffffffffffffffffffffffffffff1673ffffffffffffffffffffffffffffffffffffffff1614155b15612f78576133bc565b60a0604051908101604052808260000160009054906101000a900473ffffffffffffffffffffffffffffffffffffffff1673ffffffffffffffffffffffffffffffffffffffff1673ffffffffffffffffffffffffffffffffffffffff1681526020018260010160009054906101000a900473ffffffffffffffffffffffffffffffffffffffff1673ffffffffffffffffffffffffffffffffffffffff1673ffffffffffffffffffffffffffffffffffffffff1681526020018260020160009054906101000a900473ffffffffffffffffffffffffffffffffffffffff1673ffffffffffffffffffffffffffffffffffffffff1673ffffffffffffffffffffffffffffffffffffffff1681526020018260030160009054906101000a90046fffffffffffffffffffffffffffffffff166fffffffffffffffffffffffffffffffff1673ffffffffffffffffffffffffffffffffffffffff1681526020018260030160109054906101000a900467ffffffffffffffff1667ffffffffffffffff1673ffffffffffffffffffffffffffffffffffffffff16815250848467ffffffffffffffff1681518110151561312857fe5b9060200190602002018190525082806001019350506133bb565b8773ffffffffffffffffffffffffffffffffffffffff168160010160009054906101000a900473ffffffffffffffffffffffffffffffffffffffff1673ffffffffffffffffffffffffffffffffffffffff1614806131ef57508773ffffffffffffffffffffffffffffffffffffffff168160020160009054906101000a900473ffffffffffffffffffffffffffffffffffffffff1673ffffffffffffffffffffffffffffffffffffffff16145b156133ba5760a0604051908101604052808260000160009054906101000a900473ffffffffffffffffffffffffffffffffffffffff1673ffffffffffffffffffffffffffffffffffffffff1673ffffffffffffffffffffffffffffffffffffffff1681526020018260010160009054906101000a900473ffffffffffffffffffffffffffffffffffffffff1673ffffffffffffffffffffffffffffffffffffffff1673ffffffffffffffffffffffffffffffffffffffff1681526020018260020160009054906101000a900473ffffffffffffffffffffffffffffffffffffffff1673ffffffffffffffffffffffffffffffffffffffff1673ffffffffffffffffffffffffffffffffffffffff1681526020018260030160009054906101000a90046fffffffffffffffffffffffffffffffff166fffffffffffffffffffffffffffffffff1673ffffffffffffffffffffffffffffffffffffffff1681526020018260030160109054906101000a900467ffffffffffffffff1667ffffffffffffffff1673ffffffffffffffffffffffffffffffffffffffff16815250848467ffffffffffffffff168151811015156133a457fe5b9060200190602002018190525082806001019350505b5b5b8180600101925050612e62565b839550505050505092915050565b6060600060606000806000809054906101000a900473ffffffffffffffffffffffffffffffffffffffff1673ffffffffffffffffffffffffffffffffffffffff168773ffffffffffffffffffffffffffffffffffffffff161461347957600360008873ffffffffffffffffffffffffffffffffffffffff1673ffffffffffffffffffffffffffffffffffffffff16815260200190815260200160002054613480565b6007805490505b9350836040519080825280602002602001820160405280156134bc57816020015b6134a9613fa1565b8152602001906001900390816134a15790505b50925060009150600090505b6007805490508167ffffffffffffffff161015613d43576000809054906101000a900473ffffffffffffffffffffffffffffffffffffffff1673ffffffffffffffffffffffffffffffffffffffff168773ffffffffffffffffffffffffffffffffffffffff1614156138b85785600481111561354057fe5b60078267ffffffffffffffff1681548110151561355957fe5b9060005260206000209060040201600201601c9054906101000a900460ff16600481111561358357fe5b14156138ae5760e06040519081016040528060078367ffffffffffffffff168154811015156135ae57fe5b906000526020600020906004020160000160009054906101000a900473ffffffffffffffffffffffffffffffffffffffff1673ffffffffffffffffffffffffffffffffffffffff1673ffffffffffffffffffffffffffffffffffffffff16815260200160078367ffffffffffffffff1681548110151561362a57fe5b906000526020600020906004020160010160009054906101000a900473ffffffffffffffffffffffffffffffffffffffff1673ffffffffffffffffffffffffffffffffffffffff1673ffffffffffffffffffffffffffffffffffffffff16815260200160078367ffffffffffffffff168154811015156136a657fe5b906000526020600020906004020160010160149054906101000a900463ffffffff1663ffffffff1673ffffffffffffffffffffffffffffffffffffffff16815260200160078367ffffffffffffffff1681548110151561370257fe5b906000526020600020906004020160010160189054906101000a900463ffffffff1663ffffffff1673ffffffffffffffffffffffffffffffffffffffff16815260200160078367ffffffffffffffff1681548110151561375e57fe5b906000526020600020906004020160020160009054906101000a900473ffffffffffffffffffffffffffffffffffffffff1673ffffffffffffffffffffffffffffffffffffffff1673ffffffffffffffffffffffffffffffffffffffff16815260200160078367ffffffffffffffff168154811015156137da57fe5b906000526020600020906004020160020160149054906101000a900467ffffffffffffffff1667ffffffffffffffff1673ffffffffffffffffffffffffffffffffffffffff16815260200160078367ffffffffffffffff1681548110151561383e57fe5b9060005260206000209060040201600201601c9054906101000a900460ff16600481111561386857fe5b60ff1673ffffffffffffffffffffffffffffffffffffffff16815250838267ffffffffffffffff1681518110151561389c57fe5b906020019060200201819052506138b3565b613d36565b613d35565b8560048111156138c457fe5b60078267ffffffffffffffff168154811015156138dd57fe5b9060005260206000209060040201600201601c9054906101000a900460ff16600481111561390757fe5b1415613d2f578673ffffffffffffffffffffffffffffffffffffffff1660078267ffffffffffffffff1681548110151561393d57fe5b906000526020600020906004020160000160009054906101000a900473ffffffffffffffffffffffffffffffffffffffff1673ffffffffffffffffffffffffffffffffffffffff161480613a0657508673ffffffffffffffffffffffffffffffffffffffff1660078267ffffffffffffffff168154811015156139bc57fe5b906000526020600020906004020160010160009054906101000a900473ffffffffffffffffffffffffffffffffffffffff1673ffffffffffffffffffffffffffffffffffffffff16145b15613d2a5760e06040519081016040528060078367ffffffffffffffff16815481101515613a3057fe5b906000526020600020906004020160000160009054906101000a900473ffffffffffffffffffffffffffffffffffffffff1673ffffffffffffffffffffffffffffffffffffffff1673ffffffffffffffffffffffffffffffffffffffff16815260200160078367ffffffffffffffff16815481101515613aac57fe5b906000526020600020906004020160010160009054906101000a900473ffffffffffffffffffffffffffffffffffffffff1673ffffffffffffffffffffffffffffffffffffffff1673ffffffffffffffffffffffffffffffffffffffff16815260200160078367ffffffffffffffff16815481101515613b2857fe5b906000526020600020906004020160010160149054906101000a900463ffffffff1663ffffffff1673ffffffffffffffffffffffffffffffffffffffff16815260200160078367ffffffffffffffff16815481101515613b8457fe5b906000526020600020906004020160010160189054906101000a900463ffffffff1663ffffffff1673ffffffffffffffffffffffffffffffffffffffff16815260200160078367ffffffffffffffff16815481101515613be057fe5b906000526020600020906004020160020160009054906101000a900473ffffffffffffffffffffffffffffffffffffffff1673ffffffffffffffffffffffffffffffffffffffff1673ffffffffffffffffffffffffffffffffffffffff16815260200160078367ffffffffffffffff16815481101515613c5c57fe5b906000526020600020906004020160020160149054906101000a900467ffffffffffffffff1667ffffffffffffffff1673ffffffffffffffffffffffffffffffffffffffff16815260200160078367ffffffffffffffff16815481101515613cc057fe5b9060005260206000209060040201600201601c9054906101000a900460ff166004811115613cea57fe5b60ff1673ffffffffffffffffffffffffffffffffffffffff168152508383815181101515613d1457fe5b9060200190602002018190525081806001019250505b613d34565b613d36565b5b5b80806001019150506134c8565b8294505050505092915050565b61010060405190810160405280600073ffffffffffffffffffffffffffffffffffffffff168152602001600073ffffffffffffffffffffffffffffffffffffffff168152602001600063ffffffff168152602001600063ffffffff168152602001600073ffffffffffffffffffffffffffffffffffffffff168152602001600067ffffffffffffffff16815260200160006004811115613dec57fe5b8152602001606081525090565b828054600181600116156101000203166002900490600052602060002090601f016020900481019282601f10613e3a57805160ff1916838001178555613e68565b82800160010185558215613e68579182015b82811115613e67578251825591602001919060010190613e4c565b5b509050613e759190613fc4565b5090565b60c060405190810160405280600073ffffffffffffffffffffffffffffffffffffffff168152602001600073ffffffffffffffffffffffffffffffffffffffff168152602001600073ffffffffffffffffffffffffffffffffffffffff16815260200160006fffffffffffffffffffffffffffffffff168152602001600067ffffffffffffffff168152602001606081525090565b60a060405190810160405280600073ffffffffffffffffffffffffffffffffffffffff16815260200160006fffffffffffffffffffffffffffffffff16815260200160608152602001600063ffffffff16815260200160006fffffffffffffffffffffffffffffffff1681525090565b60a060405190810160405280600590602082028038833980820191505090505090565b60e060405190810160405280600790602082028038833980820191505090505090565b613fe691905b80821115613fe2576000816000905550600101613fca565b5090565b90565b6000613ff58235614cf2565b905092915050565b60006140098235614d12565b905092915050565b600082601f830112151561402457600080fd5b813561403761403282614aff565b614ad2565b9150808252602083016020830185838301111561405357600080fd5b61405e838284614da7565b50505092915050565b60006140738235614d2b565b905092915050565b60006140878235614d47565b905092915050565b600061409b8235614d67565b905092915050565b60006140af8235614d71565b905092915050565b60006140c38235614d81565b905092915050565b6000602082840312156140dd57600080fd5b60006140eb84828501613fe9565b91505092915050565b60008060008060008060c0878903121561410d57600080fd5b600061411b89828a01613fe9565b965050602061412c89828a01613fe9565b955050604061413d89828a01614067565b945050606061414e89828a0161407b565b935050608061415f89828a016140b7565b92505060a087013567ffffffffffffffff81111561417c57600080fd5b61418889828a01614011565b9150509295509295509295565b600080604083850312156141a857600080fd5b60006141b685828601613fe9565b92505060206141c785828601614067565b9150509250929050565b6000806000606084860312156141e657600080fd5b60006141f486828701613fe9565b935050602061420586828701614067565b925050604084013567ffffffffffffffff81111561422257600080fd5b61422e86828701614011565b9150509250925092565b6000806000806080858703121561424e57600080fd5b600061425c87828801613fe9565b945050602061426d878288016140a3565b935050604061427e878288016140a3565b925050606085013567ffffffffffffffff81111561429b57600080fd5b6142a787828801614011565b91505092959194509250565b6000602082840312156142c557600080fd5b60006142d384828501613ffd565b91505092915050565b6000806000606084860312156142f157600080fd5b60006142ff86828701614067565b935050602084013567ffffffffffffffff81111561431c57600080fd5b61432886828701614011565b9250506040614339868287016140b7565b9150509250925092565b60006020828403121561435557600080fd5b60006143638482850161407b565b91505092915050565b6000806040838503121561437f57600080fd5b600061438d8582860161407b565b925050602061439e85828601613ffd565b9150509250929050565b6000602082840312156143ba57600080fd5b60006143c88482850161408f565b91505092915050565b6143da81614c19565b82525050565b60006143eb82614b73565b8084526020840193506143fd83614b2b565b60005b8281101561442f5761441386835161455f565b61441c82614bcb565b915060a086019550600181019050614400565b50849250505092915050565b600061444682614b7e565b80845260208401935061445883614b38565b60005b8281101561448a5761446e8683516145aa565b61447782614bd8565b915060e08601955060018101905061445b565b50849250505092915050565b60006144a182614b89565b8084526020840193506144b383614b45565b60005b828110156144e5576144c98683516145f5565b6144d282614be5565b91506020860195506001810190506144b6565b50849250505092915050565b60006144fc82614b94565b8084526020840193508360208202850161451585614b52565b60005b8481101561454e578383038852614530838351614649565b925061453b82614bf2565b9150602088019750600181019050614518565b508196508694505050505092915050565b61456881614b9f565b61457182614b5f565b60005b828110156145a35761458785835161468e565b61459082614bff565b9150602085019450600181019050614574565b5050505050565b6145b381614baa565b6145bc82614b69565b60005b828110156145ee576145d285835161468e565b6145db82614c0c565b91506020850194506001810190506145bf565b5050505050565b6145fe81614c39565b82525050565b61460d81614d95565b82525050565b600061461e82614bc0565b808452614632816020860160208601614db6565b61463b81614de9565b602085010191505092915050565b600061465482614bb5565b808452614668816020860160208601614db6565b61467181614de9565b602085010191505092915050565b61468881614c7b565b82525050565b61469781614c97565b82525050565b6146a681614cb7565b82525050565b6146b581614cc1565b82525050565b6146c481614cd1565b82525050565b6146d381614ce5565b82525050565b600060c0820190506146ee60008301896143d1565b6146fb60208301886143d1565b614708604083018761467f565b614715606083018661468e565b61472260808301856146bb565b81810360a08301526147348184614613565b9050979650505050505050565b600061010082019050614757600083018b6143d1565b614764602083018a6143d1565b61477160408301896146ac565b61477e60608301886146ac565b61478b608083018761468e565b61479860a08301866146bb565b6147a560c0830185614604565b81810360e08301526147b78184614649565b90509998505050505050505050565b6000610100820190506147dc600083018b6143d1565b6147e9602083018a6143d1565b6147f660408301896146ac565b61480360608301886146ac565b614810608083018761468e565b61481d60a08301866146bb565b81810360c083015261482f8185614613565b905061483e60e08301846146ca565b9998505050505050505050565b600060a08201905061486060008301886143d1565b61486d602083018761467f565b818103604083015261487f8186614613565b905061488e60608301856146ac565b61489b608083018461467f565b9695505050505050565b600060a0820190506148ba60008301886143d1565b6148c7602083018761467f565b81810360408301526148d98186614649565b90506148e860608301856146ac565b6148f5608083018461467f565b9695505050505050565b600060408201905061491460008301856143d1565b614921602083018461469d565b9392505050565b600060408201905061493d60008301856143d1565b61494a60208301846146bb565b9392505050565b6000602082019050818103600083015261496b81846143e0565b905092915050565b6000602082019050818103600083015261498d818461443b565b905092915050565b600060408201905081810360008301526149af8185614496565b905081810360208301526149c381846144f1565b90509392505050565b60006020820190506149e1600083018461467f565b92915050565b60006020820190506149fc600083018461468e565b92915050565b600060c082019050614a17600083018961468e565b614a2460208301886143d1565b614a3160408301876143d1565b614a3e606083018661467f565b614a4b60808301856146bb565b81810360a0830152614a5d8184614649565b9050979650505050505050565b600060c082019050614a7f600083018961468e565b614a8c60208301886143d1565b614a9960408301876143d1565b614aa6606083018661467f565b614ab360808301856146bb565b81810360a0830152614ac58184614613565b9050979650505050505050565b6000604051905081810181811067ffffffffffffffff82111715614af557600080fd5b8060405250919050565b600067ffffffffffffffff821115614b1657600080fd5b601f19601f8301169050602081019050919050565b6000602082019050919050565b6000602082019050919050565b6000602082019050919050565b6000602082019050919050565b6000819050919050565b6000819050919050565b600081519050919050565b600081519050919050565b600081519050919050565b600081519050919050565b600060059050919050565b600060079050919050565b600081519050919050565b600081519050919050565b6000602082019050919050565b6000602082019050919050565b6000602082019050919050565b6000602082019050919050565b6000602082019050919050565b6000602082019050919050565b600073ffffffffffffffffffffffffffffffffffffffff82169050919050565b60007fffffffffffffffffffffffffffffffffffffffff00000000000000000000000082169050919050565b6000600582101515614c7357fe5b819050919050565b60006fffffffffffffffffffffffffffffffff82169050919050565b600073ffffffffffffffffffffffffffffffffffffffff82169050919050565b6000819050919050565b600063ffffffff82169050919050565b600067ffffffffffffffff82169050919050565b600060ff82169050919050565b600073ffffffffffffffffffffffffffffffffffffffff82169050919050565b6000600582101515614d2357600080fd5b819050919050565b60006fffffffffffffffffffffffffffffffff82169050919050565b600073ffffffffffffffffffffffffffffffffffffffff82169050919050565b6000819050919050565b600063ffffffff82169050919050565b600067ffffffffffffffff82169050919050565b6000614da082614c65565b9050919050565b82818337600083830152505050565b60005b83811015614dd4578082015181840152602081019050614db9565b83811115614de3576000848401525b50505050565b6000601f19601f83011690509190505600a265627a7a7230582077da968f97a799f43cb55221643c50a4c7e9ecd43995e557cacf1f556672919a6c6578706572696d656e74616cf50037",
  "source": "pragma solidity ^0.4.2;\r\npragma experimental ABIEncoderV2;\r\ncontract TTVIP {\r\n    enum ContractState{\r\n    ALL,\r\n    CREATED,\r\n    CONFIRMED,\r\n    EFFECTED,\r\n    CLOSED\r\n    }\r\n    //\r\n    struct Content{\r\n    address firstParty;      //\r\n    address secondParty;     //\r\n    uint32 shareProfit;       // 0-100 %\r\n    uint32 expireYear;        //  N \r\n    uint160 txHash;          //\r\n    uint64 timestamp;        //\r\n    ContractState state;     //\r\n    string remark;           //\r\n    }\r\n\r\n    //\r\n    struct Account{\r\n    address userAddr;\r\n    uint128 userId;         //ID\r\n    string userName;        //\r\n    uint32 status;          //  10\r\n    uint128 balance;         //     balance/100;\r\n    }\r\n\r\n    //\r\n    struct Transaction{\r\n    uint160 txHash;           //ID\r\n    address from;             //\r\n    address to;               //\r\n    uint128 amount;           //\r\n    uint64 timestamp;        //\r\n    string remark;           //\r\n    }\r\n\r\n    //\r\n    address admin;\r\n\r\n    //\r\n    mapping (address => Account) public  accounts;\r\n    address[] account_keys;\r\n\r\n\r\n    //\r\n    mapping (address=>uint)  cnounces;\r\n    //\r\n    mapping (uint160 => uint)  c_indexs;\r\n\r\n    //\r\n    mapping (address => uint)  tnounces;\r\n    //\r\n    mapping (uint160 => uint)  t_indexs;\r\n\r\n    //\r\n    Content[] public contracts;\r\n    //\r\n    Transaction[] public transactions;\r\n\r\n    uint160 txHash=1010101;\r\n\r\n\r\n    //\r\n    event Signed(address indexed firstParty,address indexed secondParty,uint indexed txHash);\r\n    //\r\n    event Transformed(address indexed from,address indexed to,uint indexed txHash);\r\n\r\n    function TTVIP() {\r\n        admin = msg.sender;\r\n    }\r\n\r\n    modifier onlyAdmin() {\r\n        if (msg.sender != admin) throw;\r\n        _;\r\n    }\r\n\r\n    //\r\n    function signContract(address secondParty,uint32 shareProfit,uint32 expireYear,string remark) public returns(uint160){\r\n        uint160 txHash=getTxHash();\r\n        var timestamp=uint64(now);\r\n        Content memory con=Content(msg.sender,secondParty,shareProfit,expireYear,txHash,timestamp,ContractState.CREATED,remark);\r\n        uint index=contracts.length;\r\n        c_indexs[txHash]=index;\r\n        contracts.push(con);\r\n\r\n        cnounces[msg.sender]++;\r\n        cnounces[secondParty]++;\r\n        Signed(msg.sender,secondParty,txHash);\r\n        return txHash;\r\n    }\r\n\r\n    //\r\n    function confirmContract(uint160 txHash,ContractState state)public{\r\n        uint index=c_indexs[txHash];\r\n        Content memory t=contracts[index];\r\n        require(msg.sender==t.secondParty&&t.state==ContractState.CREATED);\r\n        contracts[index].state=state;\r\n    }\r\n\r\n\r\n    //\r\n    function getContractsInternal(address useraddress,ContractState state) constant internal returns(uint160[7][]) {\r\n        var length=(useraddress==admin?contracts.length:cnounces[useraddress]);\r\n        uint160[7][] memory temp=new uint160[7][](length);\r\n        uint index=0;\r\n        for (uint64 i = 0; i < contracts.length; i++) {\r\n            if(useraddress==admin){\r\n                if(contracts[i].state==state){\r\n                    temp[i] = [uint160(contracts[i].firstParty),uint160(contracts[i].secondParty),contracts[i].shareProfit,contracts[i].expireYear,contracts[i].txHash,contracts[i].timestamp,uint8(contracts[i].state)];\r\n                }else{\r\n                    continue;\r\n                }\r\n            }else{\r\n                if(contracts[i].state==state){\r\n                    if(contracts[i].firstParty==useraddress||contracts[i].secondParty==useraddress){\r\n                        temp[index] = [uint160(contracts[i].firstParty),uint160(contracts[i].secondParty),contracts[i].shareProfit,contracts[i].expireYear,contracts[i].txHash,contracts[i].timestamp,uint8(contracts[i].state)];\r\n                        index++;\r\n                    }\r\n                }else{\r\n                    continue;\r\n                }\r\n            }\r\n        }\r\n        return temp;\r\n    }\r\n\r\n    //\r\n    function getContracts(ContractState state)public  view returns(uint160[7][]) {\r\n        return getContractsInternal(msg.sender,state);\r\n    }\r\n\r\n\r\n    //ID\r\n    function getConrtactDetail(uint160 txHash) public view returns(address,address,uint32,uint32,uint160,uint64,string,uint8){\r\n        uint index=c_indexs[txHash];\r\n        Content memory t=contracts[index];\r\n        return(t.firstParty,t.secondParty,t.shareProfit,t.expireYear,t.txHash,t.timestamp,t.remark,uint8(t.state));\r\n    }\r\n\r\n    //\r\n    function transform(address to,uint128 amount ,string remark) public returns(uint160){\r\n        require(amount>0&&accounts[msg.sender].balance>=amount);\r\n\r\n        uint160 txHash=getTxHash();\r\n        var timestamp=uint64(now);\r\n        accounts[msg.sender].balance-=amount;\r\n        accounts[to].balance+=amount;\r\n        tnounces[msg.sender]++;\r\n        tnounces[to]++;\r\n        this.takerecord(msg.sender,to,amount,txHash,timestamp,remark);\r\n        shareProfit(to,amount);\r\n        Transformed(msg.sender,to,txHash);\r\n        return txHash;\r\n    }\r\n\r\n    function shareProfit(address secondParty,uint128 amount){\r\n        var length=cnounces[secondParty];\r\n        uint32 shareProfit=0;\r\n        address firstParty;\r\n        for (uint i = 0; i < contracts.length; i++) {\r\n            if(contracts[i].state==ContractState.EFFECTED){\r\n                if(contracts[i].secondParty==secondParty){\r\n                    shareProfit=contracts[i].shareProfit;\r\n                    firstParty=contracts[i].firstParty;\r\n                    break;\r\n                }\r\n            }\r\n        }\r\n        if(shareProfit>0){\r\n            uint160 txHash=getTxHash();\r\n            uint128 profit=amount*(shareProfit/100);\r\n            takerecord(firstParty,secondParty,profit,txHash,uint64(now),\"share profit!\");\r\n        }\r\n    }\r\n\r\n    //\r\n    function addFund(address to,uint128 amount,string remark) public onlyAdmin() returns(address touser,uint balance){\r\n        var timestamp=uint64(now);\r\n        uint160 txHash=getTxHash();\r\n        accounts[to].balance+=amount;\r\n        this.takerecord(msg.sender,to,amount,txHash,timestamp,remark);\r\n        tnounces[msg.sender]++;\r\n        tnounces[to]++;\r\n        Transformed(msg.sender,to,txHash);\r\n        return (to,accounts[to].balance);\r\n    }\r\n\r\n    //\r\n    function takerecord(address from,address to,uint128 amount,uint160 txHash,uint64 timestamp,string remark){\r\n        uint index = transactions.length;\r\n        t_indexs[txHash] = index;\r\n        transactions.push(Transaction(txHash,from,to,amount,timestamp,remark));\r\n    }\r\n\r\n    //\r\n    function getTransactionsInternal(address from,address to) constant internal returns(uint160[5][]) {\r\n        var length=(from==admin?transactions.length:tnounces[from]);\r\n        uint160[5][] memory temp=new uint160[5][](length);\r\n        uint64 index=0;\r\n        for (uint64 i = 0; i < transactions.length; i++) {\r\n            Transaction t=transactions[i];\r\n            if(from==admin){\r\n                if(to!=0&&t.to!=to){\r\n                    continue;\r\n                }\r\n                temp[index]=[t.txHash,uint160(t.from),uint160(t.to),t.amount,t.timestamp];\r\n                index++;\r\n            }else{\r\n                if(t.from==from||t.to==from){\r\n                    temp[index]=[t.txHash,uint160(t.from),uint160(t.to),t.amount,t.timestamp];\r\n                    index++;\r\n                }\r\n            }\r\n\r\n        }\r\n        return temp;\r\n    }\r\n\r\n    //\r\n    function getTransactions(address to) public view returns(uint160[5][]){\r\n        return getTransactionsInternal(msg.sender,to);\r\n    }\r\n\r\n    //ID\r\n    function getTransactionDetail(uint160 txHash) public view returns(uint160,address,address,uint128,uint64,string){\r\n        uint index = t_indexs[txHash];\r\n        Transaction memory t = transactions[index];\r\n        return(t.txHash,t.from, t.to, t.amount, t.timestamp, t.remark);\r\n    }\r\n\r\n    //\r\n    function register(uint128 userId,string userName,uint64 balance)public{\r\n        //\r\n        address user_addr=tx.origin;\r\n        Account memory acc=accounts[user_addr];\r\n        require(acc.userId==0);\r\n        Account memory newAcc=Account(user_addr,userId,userName,1,balance);\r\n        accounts[user_addr]=newAcc;\r\n        account_keys.push(user_addr);\r\n    }\r\n\r\n    //\r\n    function updateBalance(address addr,uint128 amount){\r\n        accounts[addr].balance+=amount;\r\n    }\r\n\r\n    //bytes20\r\n    function getAccountList() public  view  returns(bytes20[],string[]){\r\n        bytes20[] memory addrs = new bytes20[](account_keys.length);\r\n        string[] memory names = new string[](account_keys.length);\r\n        for (uint i = 0; i <account_keys.length; i++) {\r\n            addrs[i] =bytes20(accounts[account_keys[i]].userAddr);\r\n            names[i]=accounts[account_keys[i]].userName;\r\n        }\r\n        return (addrs,names);\r\n    }\r\n\r\n    //\r\n    function getAccount() public  view  returns(address,uint128,string,uint32,uint128){\r\n        Account memory acc= accounts[msg.sender];\r\n        return (acc.userAddr,acc.userId,acc.userName,acc.status,acc.balance);\r\n    }\r\n\r\n    //\r\n    function getBalance()public  view  returns(uint128){\r\n        return accounts[msg.sender].balance;\r\n    }\r\n\r\n    function getTxHash()internal returns(uint160){\r\n        txHash++;\r\n        return txHash;\r\n    }\r\n\r\n\r\n\r\n    //\r\n    function test() public view returns(address val,uint64 t){\r\n        uint64 a=uint64(msg.sender);\r\n        //   uint64 va=uint64(now);\r\n        return (admin,a);\r\n    }\r\n}\r\n",
  "sourcePath": "D:\\dapps\\pet-shop\\contracts\\CustomerAccount.sol",
  "compiler": {
    "name": "solc",
    "version": "0.4.23+commit.124ca40d.Emscripten.clang"
  },
  "schemaVersion": "2.0.0",
  "updatedAt": "2018-05-25T09:13:12.108Z"
}